:100000000C9463000C948B000C948B000C948B006C
:100010000C948B000C948B000C948B000C948B0034
:100020000C948B000C948B000C948B000C948B0024
:100030000C948B000C948B000C948B000C948B0014
:100040000C94B2060C948B000C9480060C945A0607
:100050000C948B000C948B000C948B000C948B00F4
:100060000C948B000C948B000000000024002700EF
:100070002A0000000000250028002B0000000000DE
:1000800023002600290004040404040404040202DA
:100090000202020203030303030301020408102007
:1000A0004080010204081020010204081020000012
:1000B0000008000201000003040700000000000027
:1000C0000000FC06200A11241FBECFEFD8E0DEBFDF
:1000D000CDBF21E0A4E2B1E001C01D92A53DB20771
:1000E000E1F711E0A0E0B1E0ECE4F9E102C0059035
:1000F0000D92A432B107D9F710E0C2E6D0E004C0F7
:100100002197FE010E94970AC136D107C9F70E94C4
:100110002C070C94990C0C9400000895CF92DF9258
:10012000EF92FF920F931F93CF93DF936C017A01AD
:100130008B01C0E0D0E0CE15DF0581F0D8016D91D4
:100140008D01D601ED91FC910190F081E02DC60169
:100150000995892B11F02196EECF7E01C701DF9121
:10016000CF911F910F91FF90EF90DF90CF90089566
:1001700080E090E00895FC01538D448D252F30E000
:10018000842F90E0821B930B541710F0CF960895A4
:1001900001970895FC01918D828D981761F0828DF1
:1001A000DF01A80FB11D5D968C91928D9F5F9F73AB
:1001B000928F90E008958FEF9FEF08952FB7F894F6
:1001C00080912A0190912B01A0912C01B0912D01D9
:1001D0002FBF8093360190933701A0933801B093DD
:1001E00039018EE291E00E94CA0097FF26C02FB726
:1001F000F89480912A0190912B01A0912C01B0914B
:100200002D012FBF40913601509137016091380187
:1002100070913901841B950BA60BB70B40913201ED
:100220005091330160913401709135018417950725
:10023000A607B707B0F28FEF9FEF0895FC01918DED
:10024000828D981731F0828DE80FF11D858D90E039
:1002500008958FEF9FEF0895FC01918D228D892FD6
:1002600090E0805C9F4F821B91098F7399270895BE
:100270008EE291E00E942C0121E0892B09F420E01C
:10028000822F0895FC01848DDF01A80FB11DA35AB0
:10029000BF4F2C91848D90E001968F739927848FA6
:1002A000A689B7892C93A089B1898C9183708064C9
:1002B0008C93938D848D981306C00288F389E02D6A
:1002C00080818F7D80830895EF92FF920F931F931B
:1002D000CF93DF93EC0181E0888F9B8D8C8D9813F9
:1002E00005C0E889F989808185FD26C0F62E0B8D31
:1002F00010E00F5F1F4F0F731127E02E8C8DE81257
:100300000CC00FB607FCFACFE889F989808185FF18
:10031000F5CFCE010E944201F1CF8B8DFE01E80F97
:10032000F11DE35AFF4FF0829FB7F8940B8FEA89D3
:10033000FB89808180620AC09FB7F894EE89FF89AB
:100340006083E889F98980818370806480839FBF9E
:1003500081E090E0DF91CF911F910F91FF90EF909E
:10036000089560E38EE291E00C946401CF93DF93F3
:10037000EC01888D8823C9F0EA89FB89808185FD9D
:1003800005C0A889B9898C9186FD0FC00FB607FCFE
:10039000F5CF808185FFF2CFA889B9898C9185FF3F
:1003A000EDCFCE010E944201E7CFDF91CF910895BA
:1003B00080E090E0892B29F00E94380181110C9493
:1003C00000000895833081F028F4813099F0823064
:1003D000A1F008958730A9F08830B9F08430D1F4C5
:1003E000809180008F7D03C0809180008F77809303
:1003F0008000089584B58F7702C084B58F7D84BD59
:1004000008958091B0008F7703C08091B0008F7DF8
:100410008093B0000895CF93DF93282F30E0F90147
:10042000E255FF4F8491F901E656FF4FD491F9014F
:10043000EA57FF4FC491CC2391F081110E94E20151
:10044000EC2FF0E0EE0FFF1FE458FF4FA591B491A1
:10045000EC91ED2381E090E021F480E002C080E0A7
:1004600090E0DF91CF9108951F93CF93DF93282FD2
:1004700030E0F901E255FF4F8491F901E656FF4F54
:10048000D491F901EA57FF4FC491CC23C1F0162F44
:1004900081110E94E201EC2FF0E0EE0FFF1FEE58F9
:1004A000FF4FA591B4919FB7F894111104C08C919E
:1004B000D095D82302C0EC91DE2BDC939FBFDF9157
:1004C000CF911F910895CF93DF9390E0FC01E65602
:1004D000FF4F2491FC01EA57FF4F8491882361F17B
:1004E00090E0880F991FFC01E859FF4FC591D49106
:1004F000FC01EE58FF4FA591B491611109C09FB75F
:10050000F8948881209582238883EC912E230BC058
:10051000623061F49FB7F8948881322F309583233D
:100520008883EC912E2B2C939FBF06C08FB7F89435
:10053000E8812E2B28838FBFDF91CF9108953FB79D
:10054000F8948091260190912701A0912801B09103
:10055000290126B5A89B05C02F3F19F00196A11DC2
:10056000B11D3FBFBA2FA92F982F8827820F911D49
:10057000A11DB11DBC01CD0142E0660F771F881F90
:10058000991F4A95D1F708958F929F92AF92BF928B
:10059000CF92DF92EF92FF926B017C010E949F024B
:1005A0004B015C01C114D104E104F104F1F00E949B
:1005B0009F02DC01CB0188199909AA09BB09883E71
:1005C0009340A105B10570F321E0C21AD108E108FA
:1005D000F10888EE880E83E0981EA11CB11CC1149E
:1005E000D104E104F10419F7DDCFFF90EF90DF9023
:1005F000CF90BF90AF909F908F900895DC0114969C
:100600004D915C9115974115510529F0ED91FC91A3
:100610001197309721F410922401E4E2F1E0208157
:1006200090ED920F9A3070F08FE9820F863010F4BF
:1006300099EA07C08FEB820F863010F08FEF089594
:1006400099EC920F4230510520F0ED91FC913097DA
:1006500029F410922401E4E2F1E001C031963081E6
:1006600080ED830F8A3060F08FE9830F863010F4BD
:1006700089EA05C08FEB830F863000F789EC830F82
:1006800040E1949F90011124822B089561E070E075
:1006900080E090E00E94C40261E089E00E943402A0
:1006A00061E070E080E090E00E94C40260E089E0D8
:1006B0000C9434021F93CF93DF93182F682F61702F
:1006C0008AE00E943402C12FD0E0BE017595679583
:1006D00061708BE00E943402BE0175956795759537
:1006E000679561708CE00E943402BE0123E075952D
:1006F00067952A95E1F761708DE00E943402BE0192
:1007000034E0759567953A95E1F761708EE00E9447
:100710003402BE0145E0759567954A95E1F7617031
:100720008FE00E94340256E0D595C7955A95E1F7BF
:100730006C2F617080E10E943402612F661F662772
:10074000661F81E10E94340261E08AE00E94630238
:1007500061E08BE00E94630261E08CE00E94630232
:1007600061E08DE00E94630261E08EE00E9463021E
:1007700061E08FE00E94630261E080E10E94630219
:1007800061E081E10E946302DF91CF911F910C949F
:100790004603CF93C82F60E086E00E94340260E0F9
:1007A00085E00E94340260E084E00E9434028C2FD5
:1007B000CF910C945A03CF93C82F61E086E00E943A
:1007C000340260E085E00E94340260E084E00E9430
:1007D00034028C2FCF910C945A039F92AF92BF9208
:1007E000CF92DF92EF92FF920F931F93CF93DF93FD
:1007F00060E08AE00E94630260E08BE00E94630296
:1008000060E08CE00E94630260E08DE00E94630281
:1008100060E08EE00E94630260E08FE00E9463026D
:1008200060E080E10E94630260E081E10E94630277
:1008300081E10E940B025C0180E10E940B02B694F0
:10084000BA2CAA24B794A79436E0880F991F3A953A
:10085000E1F79A2C982A8FE00E940B025C018EE04F
:100860000E940B026C018DE00E940B028C018CE057
:100870000E940B02EC018BE00E940B027C018AE0DB
:100880000E940B0245E0AA0CBB1C4A95E1F789299E
:10089000A82A54E0CC0CDD1C5A95E1F7CA2863E085
:1008A000000F111F6A95E1F70C29CC0FDD1FCC0F4B
:1008B000DD1FC02BC701880F991F8C2BDF91CF91B3
:1008C0001F910F91FF90EF90DF90CF90BF90AF906E
:1008D0009F900895CF93DF93D82FC62F88E00E9472
:1008E000DB038D2F0E94C90360E082E00E94340286
:1008F0006C2F84E00E9434020E94ED03C82F61E057
:1009000082E00E9434028C2FDF91CF9108950097EE
:1009100069F0FC0101900020E9F73197AF01481B15
:10092000590BBC018EE291E00C948E0080E090E0C7
:100930000895CF93DF938CE191E00E948704EC014E
:100940008EE191E00E9487048C0F9D1FDF91CF9173
:1009500008951F93CF93DF93182FD62FC42F80E4D1
:100960000E94DB0360E086E00E94340261E085E0E3
:100970000E943402812F0E945A036D2F84E00E944E
:1009800034026C2F88E00E94340261E070E080E065
:1009900090E00E94C40260E083E00E94340261E0C3
:1009A00070E080E090E00E94C40261E083E00E9479
:1009B000340265E070E080E090E00E94C40260E0F4
:1009C00084E00E94340260E088E00E943402DF91FB
:1009D000CF911F910C949904CF93DF9390930101D1
:1009E000809300018130910521F1029709F053C0F5
:1009F00060E083E10E94340261E082E10E943402FF
:100A000060E087E00E94340260E086E00E943402E9
:100A100060E085E00E94340260E084E00E943402DD
:100A200061E083E10E94340283EC90E00197F1F7EA
:100A30002EC061E083E10E9434028BE193E00197D4
:100A4000F1F761E082E10E943402C8E0D0E00E9448
:100A5000460361E070E080E090E00E94C4022197CC
:100A6000B1F760E087E00E94340260E086E00E9417
:100A7000340260E085E00E94340260E084E00E947D
:100A8000340261E070E080E090E00E94C40260E027
:100A900082E10E943402DF91CF910C9499040F936C
:100AA0001F93CF93DF93CDB7DEB7A1970FB6F8941E
:100AB000DEBF0FBECDBF482F50E060E070E019A24E
:100AC000CE0181968A019B010F70112722273327BF
:100AD00024E076956795579547952A95D1F7019724
:100AE0000A3014F4005D01C0095CFC01008341156B
:100AF00051056105710531F70E948704A1960FB673
:100B0000F894DEBF0FBECDBFDF91CF911F910F9143
:100B10000895CF93DF930E944F05EC018EE191E0A1
:100B20000E9487048C0F9D1FDF91CF910895FC01D7
:100B3000808191810C94350B0E94840C0F931F933C
:100B4000CF93DF93EC0188819981009729F02A8166
:100B50003B812617370788F48B016F5F7F4F0E9418
:100B6000BE0B009761F0998388831B830A832C81D5
:100B70003D81232B11F4FC01108281E001C080E053
:100B8000DF91CF911F910F910895EF92FF920F93F4
:100B90001F93CF93DF93EC017B018A01BA010E947E
:100BA0009E052881398181110DC02115310519F06B
:100BB000C9010E94350B198218821D821C821B827A
:100BC0001A8206C01D830C83B701C9010E94920CD2
:100BD000CE01DF91CF911F910F91FF90EF9008957B
:100BE000FC0111821082138212821582148240E06D
:100BF00050E060E271E00C94C505CF92DF92EF9275
:100C0000FF920F931F93CF93DF936C01EB017A0157
:100C10004617570720F48D2FEA01E62EF82EC6015D
:100C20000E94F0050091CF011091D001C017D107AB
:100C3000B8F5E016F10608F48701E091CB01F091D8
:100C4000CC01E00FF11FF08010826091CB01709118
:100C5000CC016C0F7D1F6115710561F0FB010190E6
:100C60000020E9F73197AF01461B570BC6010E94E0
:100C7000C5050EC0F60180819181009711F00E9498
:100C8000350BF601118210821582148213821282B2
:100C90008091CB019091CC01FC01E00FF11FF0821B
:100CA000C601DF91CF911F910F91FF90EF90DF90E0
:100CB000CF9008951F920F920FB60F9211242F9389
:100CC0003F934F935F936F937F938F939F93AF93D4
:100CD000BF93EF93FF938EE291E00E944201FF9158
:100CE000EF91BF91AF919F918F917F916F915F91A4
:100CF0004F913F912F910F900FBE0F901F9018951D
:100D00001F920F920FB60F9211242F938F939F93E0
:100D1000EF93FF93E0913E01F0913F018081E091DC
:100D20004401F091450182FD12C0908180914701FC
:100D30008F5F8F7320914801821751F0E091470136
:100D4000F0E0E25DFE4F958F8093470101C0808106
:100D5000FF91EF919F918F912F910F900FBE0F9068
:100D60001F9018951F920F920FB60F9211242F9378
:100D70003F938F939F93AF93BF9380912A0190915C
:100D80002B01A0912C01B0912D013091250123E080
:100D9000230F2D3720F40196A11DB11D05C026E8B3
:100DA000230F0296A11DB11D2093250180932A01D6
:100DB00090932B01A0932C01B0932D0180912601DB
:100DC00090912701A0912801B09129010196A11DC0
:100DD000B11D8093260190932701A0932801B09321
:100DE0002901BF91AF919F918F913F912F910F90CA
:100DF0000FBE0F901F901895EEE2F1E01382128261
:100E000088EE93E0A0E0B0E084839583A683B78367
:100E10008EE091E09183808385EC90E095878487D4
:100E200084EC90E09787868780EC90E0918B808BB4
:100E300081EC90E0938B828B82EC90E0958B848B9D
:100E400086EC90E0978B868B118E128E138E148E0B
:100E50008BEC91E00C94F005CF93DF93CDB7DEB728
:100E600028970FB6F894DEBF0FBECDBF789484B537
:100E7000826084BD84B5816084BD85B5826085BD96
:100E800085B5816085BD80916E00816080936E0024
:100E90001092810080918100826080938100809116
:100EA00081008160809381008091800081608093C7
:100EB00080008091B10084608093B1008091B00087
:100EC00081608093B00080917A00846080937A0082
:100ED00080917A00826080937A0080917A008160AC
:100EE00080937A0080917A00806880937A001092D3
:100EF000C10061E082E00E94630261E083E00E9441
:100F0000630261E084E00E94630261E085E00E9488
:100F1000630261E086E00E94630261E087E00E9474
:100F2000630261E088E00E94630261E089E00E9460
:100F3000630261E082E10E94630261E083E10E945A
:100F4000630260E08AE00E94630260E08BE00E943E
:100F5000630260E08CE00E94630260E08DE00E942A
:100F6000630260E08EE00E94630260E08FE00E9416
:100F7000630260E080E10E94630260E081E10E9420
:100F8000630261E082E10E94340260E083E10E943A
:100F9000340261E082E00E94340261E083E00E945A
:100FA0003402E0913E01F0913F0182E08083E091C4
:100FB0003E01F0913F011082E0913A01F0913B0136
:100FC0001082E0913C01F0913D0180E1808310921C
:100FD0004601E0914201F091430186E08083E09177
:100FE0004001F0914101808180618083E091400166
:100FF000F0914101808188608083E0914001F0910F
:101000004101808180688083E0914001F09141013D
:1010100080818F7D808362E370E080E090E00E94B9
:10102000C402EE24EA94FE2CF0920301E092020145
:1010300040E050E060E271E08BEC91E00E94C50579
:101040008EE291E00E942C01181619060CF04EC099
:10105000CE0101960E94F0050E94DE0097FD1BC0A4
:101060008F8318860D811E810F5F1F4FB801CE013F
:1010700001960E949E05882379F329813A818D810A
:101080009E81BE01695F7F4F820F931F0E94920C69
:101090001E830D83E1CF8091CB019091CC0100970D
:1010A00041F069817A816115710509F0B6C10E942C
:1010B000350B89819A819093CC018093CB018B81F0
:1010C0009C819093CE018093CD018D819E819093E0
:1010D000D0018093CF011A8219821C821B821E824A
:1010E0001D82CE0101960E949705AACF8091CF0163
:1010F0009091D001892B09F48DC1E091CB01F09141
:10110000CC018081882309F485C142E050E060E091
:1011100070E0CE0101960E94FD0589819A810097B9
:1011200019F00E94240A03C060E070E0CB017093C4
:10113000030160930201CE0101960E949705809100
:101140000201909103018430910509F40DC1FCF472
:101150008130910509F478C024F4892B09F453C037
:1011600059C18230910509F48DC0039709F052C12D
:1011700044E050E062E070E0CE0101960E94FD057F
:10118000CE0101960E94FE0240E050E00CC1873083
:10119000910509F411C134F58530910509F4F5C0C4
:1011A000069709F037C180E20E94DB0380E00E94CD
:1011B000C90361E070E080E090E00E94C40260E05A
:1011C00083E00E94340261E070E080E090E00E94E1
:1011D000C40261E083E00E94340265E070E080E0D8
:1011E00090E005C18830910509F404C1833691056A
:1011F00009F010C161E082E10E94340260E083E105
:101200000E94340205C18091CF019091D0010297D4
:1012100029F482E090E00E94EC04FCC043E050E03E
:1012200062E070E0CE0101960E94FD0589819A81FD
:10123000009719F00E94240A03C060E070E0CB011F
:10124000CB010E94EC04B3C060E070E080E00E943B
:101250006A04182F803110F40E94B101812F0E947E
:101260004F0560E070E081E00E946A04182F803131
:1012700010F40E94B101812F0E944F0560E070E0E0
:1012800082E0BBC084E00E94DB0360E082E00E9459
:10129000340260E088E00E94340260E084E00E9452
:1012A00034020E94ED03182F803110F40E94B10126
:1012B000812F0E944F0581E291E00E94870460E047
:1012C00082E00E94340261E088E00E94340261E022
:1012D00084E00E9434020E94ED03182F803110F444
:1012E0000E94B101812F0E944F0581E291E00E948E
:1012F000870480910001909101010297D1F460E090
:1013000082E00E94340261E088E00E94340260E0E2
:1013100084E00E9434020E94ED03182F803110F403
:101320000E94B101812F0E944F0581E291E00E944D
:10133000870460E082E00E94340260E088E00E945E
:10134000340261E084E00E9434020E94ED03182F11
:10135000803110F40E94B101812F0E94890561E063
:1013600082E00E94340256C044E050E062E070E047
:10137000CE0101960E94FD05CE0101960E94FE025B
:1013800040E050E061E070E010C044E050E062E016
:1013900070E0CE0101960E94FD05CE0101960E94EB
:1013A000FE0241E050E060E070E00E94A904CE013E
:1013B00001960E9497052EC080E80E94DB0361E041
:1013C00070E080E090E00E94C40260E083E00E9450
:1013D000340261E070E080E090E00E94C40261E0CD
:1013E00083E00E9434026AE070E080E090E00E94B6
:1013F000C4020EC061E070E081E00E946A04182F10
:10140000803110F40E94B101812F0E94890502C031
:101410000E9499040E94D80107CE4091CD015091BD
:10142000CE012D813E814217530708F440CE0E9421
:10143000920C8D819E819093D0018093CF014FCEED
:101440008BEC91E00C9497051F93FC01992788275A
:10145000BC01E89411911032E9F3193010F01E30FC
:10146000C8F31B3251F01D3249F4689406C00E9443
:101470004B0A610F711D811D911D119110531A307E
:10148000B0F33EF490958095709561957F4F8F4FA6
:101490009F4F1F910895592F482F372F262F660FE2
:1014A000771F881F991F660F771F881F991F620F6C
:1014B000731F841F951F660F771F881F991F08953C
:1014C0002F923F924F925F926F927F928F929F9254
:1014D000AF92BF92CF92DF92EF92FF920F931F9342
:1014E000CF93DF93CDB7DEB7CA1BDB0B0FB6F894F3
:1014F000DEBF0FBECDBF09942A88398848885F8433
:101500006E847D848C849B84AA84B984C884DF80A3
:10151000EE80FD800C811B81AA81B981CE0FD11D87
:101520000FB6F894DEBF0FBECDBFED010895EE0FEC
:10153000FF1F0590F491E02D09940F931F93CF9313
:10154000DF938230910510F482E090E0E091D301C6
:10155000F091D40120E030E0A0E0B0E0309719F144
:10156000408151810281138148175907C8F08417BF
:10157000950769F4109731F012960C931297139611
:101580001C9327C00093D3011093D40122C02115CE
:10159000310519F04217530718F49A01BD01EF0104
:1015A000DF01F801DBCF21153105F9F0281B390BDC
:1015B0002430310580F48A819B816115710521F009
:1015C000FB019383828304C09093D4018093D30161
:1015D000FE01329644C0FE01E20FF31F8193919306
:1015E00022503109398328833AC02091D1013091AA
:1015F000D201232B41F42091060130910701309351
:10160000D2012093D10120910401309105012115CF
:10161000310541F42DB73EB74091080150910901C1
:10162000241B350BE091D101F091D201E217F307B1
:10163000A0F42E1B3F0B2817390778F0AC014E5F42
:101640005F4F2417350748F04E0F5F1F5093D201AC
:101650004093D1018193919302C0E0E0F0E0CF018B
:10166000DF91CF911F910F910895CF93DF93009752
:1016700009F481C0FC01329713821282A091D30138
:10168000B091D401109781F420813181820F931F92
:101690002091D1013091D2012817390751F5F093EB
:1016A000D201E093D10167C0ED0120E030E0CE1718
:1016B000DF0740F44A815B819E0141155105F1F03D
:1016C000EA01F5CFD383C28340815181840F951FF6
:1016D000C817D90759F488819981840F951F0296FC
:1016E000918380838A819B81938382832115310535
:1016F00029F4F093D401E093D3013DC0E901FB83C9
:10170000EA8349915991C40FD51FEC17FD0761F485
:1017100080819181840F951F0296E90199838883C6
:10172000828193819B838A83E0E0F0E012968D9121
:101730009C911397009719F0FD01DC01F7CF8D9173
:101740009C9111979D012E5F3F4F820F931F209117
:10175000D1013091D2012817390769F4309729F463
:101760001092D4011092D30102C013821282B0935E
:10177000D201A093D101DF91CF910895A0E0B0E014
:10178000E4ECFBE00C94640AEC01009721F4CB013B
:101790000E949D0AB4C0FC01E60FF71F9C01225075
:1017A0003109E217F30708F4A8C0D9010D911C9183
:1017B000119706171707B0F00530110508F49BC004
:1017C000C80104978617970708F495C002501109BD
:1017D000061B170B019311936D937C93CF010E940D
:1017E000350B89C05B01A01AB10A4C01800E911E15
:1017F000A091D301B091D401612C712CE12CF12C7A
:10180000109709F446C08D919C911197A815B905C0
:10181000B1F56C0142E0C40ED11CCA14DB0478F1AE
:101820004C018A189B08640142E0C40ED11C129638
:10183000BC9012971396AC91B5E0CB16D10440F052
:10184000B282A38391828082D9016D937C9309C077
:101850000E5F1F4F800F911FF90191838083EB2D45
:10186000FA2FE114F10431F0D7011396FC93EE93B3
:10187000129741C0F093D401E093D3013CC06816A5
:10188000790608F43C017D0112960D90BC91A02DC3
:10189000B7CF8091D1019091D20188169906E1F4D9
:1018A00066167706C8F480910401909105010097AF
:1018B00041F48DB79EB74091080150910901841BF6
:1018C000950BE817F907C8F4F093D201E093D10122
:1018D000F901718360830FC0CB010E949D0A7C01D6
:1018E000009759F0A801BE010E94890CCE010E9408
:1018F000350BC70104C0CE0102C080E090E0CDB737
:10190000DEB7EEE00C94800A81E090E0F8940C944D
:10191000990CFB01DC0102C001900D924150504036
:10192000D8F70895FB01DC0101900D920020E1F74A
:10193000089510E0C2E6D0E004C0FE010E94970ABC
:0C1940002196C336D107C9F7F894FFCFF9
:10194C00FFFFFFFF0000D5018000000000006401D4
:10195C008E00BB00B6012C01CA001E0130000D0A1E
:04196C000020000057
:00000001FF
