:1000000041C065C064C063C062C061C060C05FC001
:100010005EC0FBC55CC0C7C5A1C559C058C057C0AC
:1000200056C055C054C000000000370034003100F5
:1000300000000000380035003200000000003600EB
:100040003300300004040404040404040202020225
:10005000020203030303030301020408102040808B
:100060000102040810200102040810200000000012
:100070000000000000030406000000000000000073
:100080004F06E70811241FBECFE5D4E0DEBFCDBF89
:1000900021E0A4E8B0E001C01D92A533B207E1F76A
:1000A00010E0A0E6B0E0E4ECF6E102C005900D92AD
:1000B000A438B107D9F710E0C1E4D0E003C021971C
:1000C000FE01FAD8C034D107D1F716D6EFCA98CFBF
:1000D0000895CF92DF92EF92FF920F931F93CF93E9
:1000E000DF936C017A018B01C0E0D0E0CE15DF0513
:1000F00081F0D8016D918D01D601ED91FC910190B7
:10010000F081E02DC6010995892B11F02196EECFE3
:100110007E01C701DF91CF911F910F91FF90EF906A
:10012000DF90CF90089580E090E00895FC01538D1A
:10013000448D252F30E0842F90E0821B930B5417C1
:1001400010F0CF96089501970895FC01918D828D4E
:10015000981761F0828DDF01A80FB11D5D968C911B
:10016000928D9F5F9F73928F90E008958FEF9FEF26
:1001700008952FB7F89480918A0090918B00A091F8
:100180008C00B0918D002FBF8093960090939700C4
:10019000A0939800B09399008EE890E0D6DF97FF87
:1001A00026C02FB7F89480918A0090918B00A0917F
:1001B0008C00B0918D002FBF409196005091970018
:1001C0006091980070919900841B950BA60BB70B5A
:1001D000409192005091930060919400709195002D
:1001E00084179507A607B707B8F28FEF9FEF08951A
:1001F000FC01918D828D981731F0828DE80FF11DF1
:10020000858D90E008958FEF9FEF0895FC01918D0B
:10021000228D892F90E0805C9F4F821B91098F7304
:10022000992708958EE890E0F1DF21E0892B09F409
:1002300020E0822F0895FC01848DDF01A80FB11DFD
:10024000A35ABF4F2C91848D90E001968F7399270C
:10025000848FA689B7892C93A089B1898C918274E7
:100260008C93938D848D981306C00288F389E02DBA
:1002700080818F7D80830895EF92FF920F931F936B
:10028000CF93DF93EC0181E0888F9B8D8C8D981349
:1002900005C0E889F989808185FD25C0F62E0B8D82
:1002A00010E00F5F1F4F0F731127E02E8C8DE812A7
:1002B0000BC00FB607FCFACFE889F989808185FF6A
:1002C000F5CFCE01B8DFF2CF8B8DFE01E80FF11D27
:1002D000E35AFF4FF0829FB7F8940B8FEA89FB89AE
:1002E0008081806209C09FB7F894EE89FF8960839E
:1002F000E889F9898081827480839FBF81E090E0E2
:10030000DF91CF911F910F91FF90EF90089560E3DF
:100310008EE890E0B1CFCF93DF93EC01888D8823F6
:10032000C1F0EA89FB89808185FD05C0A889B9896A
:100330008C9186FD0EC00FB607FCF5CF808185FF3E
:10034000F2CFA889B9898C9185FFEDCFCE0173DFFB
:10035000E8CFDF91CF91089580E090E0892B19F0EC
:1003600061DF81114DCE0895843039F0863049F037
:10037000833051F48FB58F7702C08FB58F7D8FBDDD
:10038000089585B58F7D85BD0895CF93DF93282F80
:1003900030E0F901E459FF4F8491F901E85AFF4F29
:1003A000D491F901EC5BFF4FC491CC2389F081110A
:1003B000DBDFEC2FF0E0EE0FFF1FE65CFF4FA591B7
:1003C000B491EC91ED2381E090E021F480E002C053
:1003D00080E090E0DF91CF9108951F93CF93DF935A
:1003E000282F30E0F901E459FF4F8491F901E85AD0
:1003F000FF4FD491F901EC5BFF4FC491CC23B9F0CE
:10040000162F8111B1DFEC2FF0E0EE0FFF1FE05D42
:10041000FF4FA591B4919FB7F894111104C08C912E
:10042000D095D82302C0EC91DE2BDC939FBFDF91E7
:10043000CF911F910895CF93DF9390E0FC01E85A8C
:10044000FF4F2491FC01EC5BFF4F8491882361F105
:1004500090E0880F991FFC01EA5DFF4FC591D49190
:10046000FC01E05DFF4FA591B491611109C09FB7F8
:10047000F8948881209582238883EC912E230BC0E9
:10048000623061F49FB7F8948881322F30958323CE
:100490008883EC912E2B2C939FBF06C08FB7F894C6
:1004A000E8812E2B28838FBFDF91CF9108953FB72E
:1004B000F8948091860090918700A0918800B09177
:1004C000890022B708B600FE05C02F3F19F001963B
:1004D000A11DB11D3FBFBA2FA92F982F8827820FCA
:1004E000911DA11DB11DBC01CD0142E0660F771F1A
:1004F000881F991F4A95D1F708958F929F92AF92C6
:10050000BF92CF92DF92EF92FF926B017C01CFDF1F
:100510004B015C01C114D104E104F104E9F0C7DF2F
:10052000DC01CB0188199909AA09BB09883E9340CF
:10053000A105B10578F321E0C21AD108E108F1085C
:1005400088EE880E83E0981EA11CB11CC114D10452
:10055000E104F10421F7DECFFF90EF90DF90CF9020
:10056000BF90AF909F908F900895DC0114964D91AD
:100570005C9115974115510529F0ED91FC9111976A
:10058000309721F410928400E4E8F0E0208190EDAF
:10059000920F9A3070F08FE9820F863010F499EA4A
:1005A00007C08FEB820F863010F08FEF089599EC23
:1005B000920F4230510520F0ED91FC91309729F4D3
:1005C00010928400E4E8F0E001C03196308180EDC3
:1005D000830F8A3060F08FE9830F863010F489EA48
:1005E00005C08FEB830F863000F789EC830F40E165
:1005F000949F90011124822B089561E070E080E0C7
:1006000090E07BDF61E089E0E8DE61E070E080E0BF
:1006100090E073DF60E089E0E0CE1F93CF93DF933B
:10062000182F682F61708AE0D8DEC12FD0E0BE019C
:100630007595679561708BE0D0DEBE017595679505
:100640007595679561708CE0C8DEBE0123E07595F5
:1006500067952A95E1F761708DE0BFDEBE0134E059
:10066000759567953A95E1F761708EE0B6DEBE014B
:1006700045E0759567954A95E1F761708FE0ADDECD
:1006800056E0D595C7955A95E1F76C2F617080E1DA
:10069000A4DE612F661F6627661F81E19EDE61E092
:1006A0008AE0C9DE61E08BE0C6DE61E08CE0C3DE9B
:1006B00061E08DE0C0DE61E08EE0BDDE61E08FE0F4
:1006C000BADE61E080E1B7DE61E081E1B4DEDF91B6
:1006D000CF911F9192CFCF93C82F60E086E07DDE4F
:1006E00060E085E07ADE60E084E077DE8C2FCF91F9
:1006F00094CFCF93C82F61E086E06FDE60E085E0A5
:100700006CDE60E084E069DE8C2FCF9186CF9F9213
:10071000AF92BF92CF92DF92EF92FF920F931F930F
:10072000CF93DF9360E08AE086DE60E08BE083DEDB
:1007300060E08CE080DE60E08DE07DDE60E08EE0F9
:100740007ADE60E08FE077DE60E080E174DE60E01A
:1007500081E171DE81E119DE5C0180E116DEB69493
:10076000BA2CAA24B794A79436E0880F991F3A951B
:10077000E1F79A2C982A8FE008DE5C018EE005DE16
:100780006C018DE002DE8C018CE0FFDDEC018BE082
:10079000FCDD7C018AE0F9DD45E0AA0CBB1C4A9532
:1007A000E1F78929A82A54E0CC0CDD1C5A95E1F721
:1007B000CA2863E0000F111F6A95E1F70C29CC0FDE
:1007C000DD1FCC0FDD1FC02BC701880F991F8C2B9D
:1007D000DF91CF911F910F91FF90EF90DF90CF901D
:1007E000BF90AF909F900895CF93DF93D82FC62FDF
:1007F00088E07FDF8D2F6FDF60E082E0EEDD6C2F21
:1008000084E0EBDD84DFC82F61E082E0E6DD8C2F41
:10081000DF91CF910895009761F0FC0101900020D5
:10082000E9F73197AF01481B590BBC018EE890E006
:1008300050CC80E090E00895CF93DF938CE790E078
:10084000EADFEC018EE790E0E6DF8C0F9D1FDF9181
:10085000CF9108951F93CF93DF93182FD62FC42FD6
:1008600080E447DF60E086E0B8DD61E085E0B5DD8B
:10087000812FD3DE6D2F84E0B0DD6C2F88E0ADDDFD
:1008800061E070E080E090E038DE60E083E0A5DDCC
:1008900061E070E080E090E030DE61E083E09DDDCB
:1008A00065E070E080E090E028DE60E084E095DDC7
:1008B00060E088E092DDDF91CF911F91BDCFCF93B3
:1008C000DF93909361008093600081309105E9F09F
:1008D000029709F042C060E083E17FDD61E082E1E0
:1008E0007CDD60E087E079DD60E086E076DD60E079
:1008F00085E073DD60E084E070DD61E083E16DDD63
:1009000083EC90E00197F1F725C061E083E165DDBC
:100910008BE193E00197F1F761E082E15EDDC8E0F1
:10092000D0E06BDE61E070E080E090E0E6DD2197F2
:10093000C1F760E087E051DD60E086E04EDD60E019
:1009400085E04BDD60E084E048DD61E070E080E060
:1009500090E0D3DD60E082E140DDDF91CF916CCFAC
:100960000F931F93CF93DF93CDB7DEB7A1970FB649
:10097000F894DEBF0FBECDBF482F50E060E070E0BE
:1009800019A2CE0181968A019B010F70112722279F
:10099000332724E076956795579547952A95D1F7A3
:1009A00001970A3014F4005D01C0095CFC0100836A
:1009B000411551056105710531F72DDFA1960FB67F
:1009C000F894DEBF0FBECDBFDF91CF911F910F9185
:1009D0000895CF93DF93C4DFEC018EE790E01BDF37
:1009E0008C0F9D1FDF91CF910895FC018081918133
:1009F00001C548D60F931F93CF93DF93EC018881F5
:100A00009981009729F02A813B812617370780F4C6
:100A10008B016F5F7F4F77D5009761F09983888353
:100A20001B830A832C813D81232B11F4FC0110824E
:100A300081E001C080E0DF91CF911F910F91089577
:100A4000EF92FF920F931F93CF93DF93EC017B0103
:100A50008A01BA01CFDF2881398181110CC02115AB
:100A6000310511F0C901C6D4198218821D821C8279
:100A70001B821A8205C01D830C83B701C9010FD6E2
:100A8000CE01DF91CF911F910F91FF90EF900895CC
:100A9000FC0111821082138212821582148240E0BE
:100AA00050E060E870E0CCCFCF92DF92EF92FF92FF
:100AB0000F931F93CF93DF936C01EB017A014617DD
:100AC000570720F48D2FEA01E62EF82EC601E0DF4D
:100AD00000912F0110913001C017D107A8F5E01641
:100AE000F10608F48701E0912B01F0912C01E00F51
:100AF000F11FF080108260912B0170912C016C0F1E
:100B00007D1F6115710559F0FB0101900020E9F787
:100B10003197AF01461B570BC60192DF0DC0F6019E
:100B200080819181009709F065D4F60111821082CD
:100B3000158214821382128280912B0190912C01D4
:100B4000FC01E00FF11FF082C601DF91CF911F91F0
:100B50000F91FF90EF90DF90CF9008951F920F922A
:100B60000FB60F9211242F933F934F935F936F9380
:100B70007F938F939F93AF93BF93EF93FF938EE8F1
:100B800090E059DBFF91EF91BF91AF919F918F91D1
:100B90007F916F915F914F913F912F910F900FBE79
:100BA0000F901F9018951F920F920FB60F9211245D
:100BB0002F938F939F93EF93FF93E0919E00F0917B
:100BC0009F008081E091A400F091A50082FD12C0F9
:100BD00090818091A7008F5F8F732091A80082176A
:100BE00051F0E091A700F0E0E257FF4F958F80931E
:100BF000A70001C08081FF91EF919F918F912F916C
:100C00000F900FBE0F901F9018951F920F920FB666
:100C10000F9211242F933F938F939F93AF93BF9382
:100C200080918A0090918B00A0918C00B0918D00F2
:100C30003091850023E0230F2D3720F40196A11D6C
:100C4000B11D05C026E8230F0296A11DB11D2093FA
:100C5000850080938A0090938B00A0938C00B093C2
:100C60008D008091860090918700A0918800B091BE
:100C700089000196A11DB11D809386009093870085
:100C8000A0938800B0938900BF91AF919F918F91FD
:100C90003F912F910F900FBE0F901F901895EEE887
:100CA000F0E01382128288EE93E0A0E0B0E084834B
:100CB0009583A683B7838EE690E09183808380E45A
:100CC00090E09587848729E230E0378726872BE2FA
:100CD00030E0318B208B2AE230E0338B228B958BF6
:100CE000848B8CE290E0978B868B118E128E138E04
:100CF000148E8BE291E0CCCECF93DF93CDB7DEB7ED
:100D000028970FB6F894DEBF0FBECDBF789483B797
:100D1000826083BF83B7816083BF89B7816089BFE9
:100D20001EBC8EB582608EBD8EB581608EBD8FB5C6
:100D300081608FBD85B5846085BD85B5806485BDC6
:100D4000329A319A309A379A1AB861E082E073DBAE
:100D500061E083E070DB61E084E06DDB61E085E011
:100D60006ADB61E086E067DB61E087E064DB61E02D
:100D700088E061DB61E089E05EDB61E082E15BDB12
:100D800061E083E158DB60E08AE055DB60E08BE006
:100D900052DB60E08CE04FDB60E08DE04CDB60E03C
:100DA0008EE049DB60E08FE046DB60E080E143DB22
:100DB00060E081E140DB61E082E10FDB60E083E144
:100DC0000CDB61E082E009DB61E083E006DBE091BF
:100DD0009E00F0919F0082E08083E0919E00F09160
:100DE0009F001082E0919A00F0919B001082E091A8
:100DF0009C00F0919D0080E180831092A600E0911C
:100E0000A200F091A30086E88083E091A000F09119
:100E1000A100808180618083E091A000F091A10019
:100E2000808188608083E091A000F091A1008081A2
:100E300080688083E091A000F091A10080818F7D87
:100E4000808362E370E080E090E057DBEE24EA9478
:100E5000FE2CF0926300E092620040E050E060E817
:100E600070E08BE291E0ECDD8EE890E0CFD91816CF
:100E700019060CF048C0CE0101960ADE7AD997FD1A
:100E800019C08F8318860D811E810F5F1F4FB80117
:100E9000CE010196AFDD882389F329813A818D81C6
:100EA0009E81BE01695F7F4F820F931FF8D31E831F
:100EB0000D83E4CF80912B0190912C01009739F0A4
:100EC00069817A816115710509F06FC193D28981B9
:100ED0009A8190932C0180932B018B819C8190931C
:100EE0002E0180932D018D819E81909330018093FE
:100EF0002F011A8219821C821B821E821D82CE0142
:100F0000019673DDB1CF80912F0190913001892B33
:100F100009F449C1E0912B01F0912C0180818823D3
:100F200009F441C142E050E060E070E0CE0101967A
:100F3000BBDD89819A81009711F04CD103C060E03C
:100F400070E0CB017093630060936200CE01019664
:100F50004CDD80916200909163008430910509F42A
:100F6000DCC0ECF48130910509F46AC024F4892BCB
:100F700009F449C018C18230910509F479C003977A
:100F800009F011C144E050E062E070E0CE0101964A
:100F90008BDDCE010196E9DA40E050E0D9C0873020
:100FA000910509F4DCC004F58530910509F4C4C04D
:100FB000069709F0F8C080E29CDB80E08CDB61E002
:100FC00070E080E090E099DA60E083E006DA61E0CA
:100FD00070E080E090E091DA61E083E0FED965E0C6
:100FE00070E080E090E0D1C08830910509F4CFC076
:100FF0008336910509F0D7C061E082E1EED960E067
:1010000083E1EBD9CFC080912F01909130010297FD
:1010100021F482E090E053DCC6C043E050E062E09F
:1010200070E0CE01019640DD89819A81009711F030
:10103000D1D003C060E070E0CB01CB0140DC8BC0BD
:1010400060E070E080E0D0DB182F803108F45FD9D9
:10105000812F86DC60E070E081E0C6DB182F8031F4
:1010600008F455D9812F7CDC60E070E082E092C00A
:1010700084E03FDB60E082E0B0D960E088E0ADD999
:1010800060E084E0AAD943DB182F803108F43FD90F
:10109000812F66DC81E890E0BEDB60E082E09DD9D4
:1010A00061E088E09AD961E084E097D930DB182FBD
:1010B000803108F42CD9812F53DC81E890E0ABDB40
:1010C0008091600090916100029799F460E082E065
:1010D00084D961E088E081D960E084E07ED917DBC3
:1010E000182F803108F413D9812F3ADC81E890E081
:1010F00092DB60E082E071D960E088E06ED961E067
:1011000084E06BD904DB182F803108F400D9812FDB
:1011100060DC61E082E061D946C044E050E062E01A
:1011200070E0CE010196C0DCCE0101961EDA40E0EF
:1011300050E061E070E00EC044E050E062E070E03A
:10114000CE010196B1DCCE0101960FDA41E050E00C
:1011500060E070E07FDBCE01019647DC24C080E8D0
:10116000C8DA61E070E080E090E0C7D960E083E039
:1011700034D961E070E080E090E0BFD961E083E0C5
:101180002CD96AE070E080E090E0B7D90BC061E054
:1011900070E081E029DB182F803108F4B8D8812F66
:1011A00018DC01C049DBD8D854CE40912D015091B4
:1011B0002E012D813E814217530708F487CE6FD24E
:1011C0008D819E819093300180932F0196CE8BE28A
:1011D00091E00BCC1F93FC0199278827BC01E89470
:1011E00011911032E9F3193010F01E30C8F31B32A0
:1011F00049F01D3241F4689405C012D0610F711D91
:10120000811D911D119110531A30B8F33EF4909541
:101210008095709561957F4F8F4F9F4F1F910895D7
:10122000592F482F372F262F660F771F881F991F9A
:10123000660F771F881F991F620F731F841F951FEA
:10124000660F771F881F991F08952F923F924F9224
:101250005F926F927F928F929F92AF92BF92CF9246
:10126000DF92EF92FF920F931F93CF93DF93CDB74F
:10127000DEB7CA1BDB0B0FB6F894DEBF0FBECDBFC7
:1012800009942A88398848885F846E847D848C8498
:101290009B84AA84B984C884DF80EE80FD800C81A1
:1012A0001B81AA81B981CE0FD11D0FB6F894DEBF84
:1012B0000FBECDBFED010895EE0FFF1F0590F49115
:1012C000E02D09940F931F93CF93DF938230910504
:1012D00010F482E090E0E0913301F091340120E0DD
:1012E00030E0A0E0B0E0309719F1408151810281F7
:1012F000138148175907C8F08417950769F41097A8
:1013000031F012960C93129713961C9327C00093FA
:1013100033011093340122C02115310519F0421711
:10132000530718F49A01BD01EF01DF01F801DBCF8B
:1013300021153105F9F0281B390B2430310580F4D3
:101340008A819B816115710521F0FB019383828362
:1013500004C09093340180933301FE01329644C05F
:10136000FE01E20FF31F81939193225031093983DB
:1013700028833AC02091310130913201232B41F46E
:101380002091660030916700309332012093310143
:1013900020916400309165002115310541F42DB78D
:1013A0003EB74091680050916900241B350BE091D5
:1013B0003101F0913201E217F307A0F42E1B3F0B2D
:1013C0002817390778F0AC014E5F5F4F24173507B7
:1013D00048F04E0F5F1F50933201409331018193CB
:1013E000919302C0E0E0F0E0CF01DF91CF911F9137
:1013F0000F910895CF93DF93009709F481C0FC010A
:10140000329713821282A0913301B0913401109768
:1014100081F420813181820F931F2091310130911D
:1014200032012817390751F5F0933201E093310169
:1014300067C0ED0120E030E0CE17DF0740F44A81BD
:101440005B819E0141155105F1F0EA01F5CFD3838F
:10145000C28340815181840F951FC817D90759F461
:1014600088819981840F951F0296918380838A8158
:101470009B81938382832115310529F4F0933401F4
:10148000E09333013DC0E901FB83EA83499159911F
:10149000C40FD51FEC17FD0761F480819181840F83
:1014A000951F0296E90199838883828193819B83AA
:1014B0008A83E0E0F0E012968D919C91139700975B
:1014C00019F0FD01DC01F7CF8D919C9111979D01E1
:1014D0002E5F3F4F820F931F2091310130913201D7
:1014E0002817390769F4309729F4109234011092C3
:1014F000330102C013821282B0933201A0933101F2
:10150000DF91CF910895A0E0B0E0E8E8FAE0A1CE45
:10151000EC01009719F4CB01D5DEB0C0FC01E60F59
:10152000F71F9C0122503109E217F30708F4A4C009
:10153000D9010D911C91119706171707A8F00530D6
:10154000110508F497C0C80104978617970708F497
:1015500091C002501109061B170B019311936D9353
:101560007C93CF0147DF86C05B01A01AB10A4C0112
:10157000800E911EA0913301B0913401612C712C29
:10158000E12CF12C109709F446C08D919C91119794
:10159000A815B905B1F56C0142E0C40ED11CCA14FE
:1015A000DB0478F14C018A189B08640142E0C40E08
:1015B000D11C1296BC9012971396AC91B5E0CB1645
:1015C000D10440F0B282A38391828082D9016D93CD
:1015D0007C9309C00E5F1F4F800F911FF90191830B
:1015E0008083EB2DFA2FE114F10431F0D70113962B
:1015F000FC93EE9312973EC0F0933401E0933301D5
:1016000039C06816790608F43C017D0112960D90E8
:10161000BC91A02DB7CF80913101909132018816F5
:101620009906E1F466167706C8F4809164009091FB
:101630006500009741F48DB79EB7409168005091C6
:101640006900841B950BE817F907B0F4F093320199
:10165000E0933101F901718360830CC0CB0132DE6C
:101660007C01009749F0A801BE0110D0CE01C2DE76
:10167000C70104C0CE0102C080E090E0CDB7DEB764
:10168000EEE003CE81E090E0F89410C0FB01DC01B5
:1016900002C001900D9241505040D8F70895FB01CF
:1016A000DC0101900D920020E1F7089510E0C1E403
:1016B000D0E003C0FE0100DE2196C234D107D1F78D
:0416C000F894FFCFCC
:1016C400FFFFFFFF000035018000000000003C0127
:1016D400690096008B010601A500F80030000D0A90
:0416E40000200000E2
:00000001FF
